{
  "_format": "hh-sol-artifact-1",
  "contractName": "MinterFilterV2",
  "sourceName": "contracts/minter-suite/MinterFilter/MinterFilterV2.sol",
  "abi": [
    {
      "inputs": [
        {
          "internalType": "address",
          "name": "adminACLContract_",
          "type": "address"
        },
        {
          "internalType": "address",
          "name": "coreRegistry_",
          "type": "address"
        }
      ],
      "stateMutability": "nonpayable",
      "type": "constructor"
    },
    {
      "anonymous": false,
      "inputs": [
        {
          "indexed": true,
          "internalType": "address",
          "name": "adminACLContract",
          "type": "address"
        }
      ],
      "name": "AdminACLUpdated",
      "type": "event"
    },
    {
      "anonymous": false,
      "inputs": [
        {
          "indexed": true,
          "internalType": "address",
          "name": "coreRegistry",
          "type": "address"
        }
      ],
      "name": "CoreRegistryUpdated",
      "type": "event"
    },
    {
      "anonymous": false,
      "inputs": [],
      "name": "Deployed",
      "type": "event"
    },
    {
      "anonymous": false,
      "inputs": [
        {
          "indexed": true,
          "internalType": "address",
          "name": "coreContract",
          "type": "address"
        },
        {
          "indexed": true,
          "internalType": "address",
          "name": "minter",
          "type": "address"
        },
        {
          "indexed": false,
          "internalType": "string",
          "name": "minterType",
          "type": "string"
        }
      ],
      "name": "MinterApprovedForContract",
      "type": "event"
    },
    {
      "anonymous": false,
      "inputs": [
        {
          "indexed": true,
          "internalType": "address",
          "name": "minter",
          "type": "address"
        },
        {
          "indexed": false,
          "internalType": "string",
          "name": "minterType",
          "type": "string"
        }
      ],
      "name": "MinterApprovedGlobally",
      "type": "event"
    },
    {
      "anonymous": false,
      "inputs": [
        {
          "indexed": true,
          "internalType": "address",
          "name": "coreContract",
          "type": "address"
        },
        {
          "indexed": true,
          "internalType": "address",
          "name": "minter",
          "type": "address"
        }
      ],
      "name": "MinterRevokedForContract",
      "type": "event"
    },
    {
      "anonymous": false,
      "inputs": [
        {
          "indexed": true,
          "internalType": "address",
          "name": "minter",
          "type": "address"
        }
      ],
      "name": "MinterRevokedGlobally",
      "type": "event"
    },
    {
      "anonymous": false,
      "inputs": [
        {
          "indexed": true,
          "internalType": "address",
          "name": "previousOwner",
          "type": "address"
        },
        {
          "indexed": true,
          "internalType": "address",
          "name": "newOwner",
          "type": "address"
        }
      ],
      "name": "OwnershipTransferred",
      "type": "event"
    },
    {
      "anonymous": false,
      "inputs": [
        {
          "indexed": true,
          "internalType": "uint256",
          "name": "projectId",
          "type": "uint256"
        },
        {
          "indexed": true,
          "internalType": "address",
          "name": "coreContract",
          "type": "address"
        },
        {
          "indexed": true,
          "internalType": "address",
          "name": "minter",
          "type": "address"
        },
        {
          "indexed": false,
          "internalType": "string",
          "name": "minterType",
          "type": "string"
        }
      ],
      "name": "ProjectMinterRegistered",
      "type": "event"
    },
    {
      "anonymous": false,
      "inputs": [
        {
          "indexed": true,
          "internalType": "uint256",
          "name": "projectId",
          "type": "uint256"
        },
        {
          "indexed": true,
          "internalType": "address",
          "name": "coreContract",
          "type": "address"
        }
      ],
      "name": "ProjectMinterRemoved",
      "type": "event"
    },
    {
      "inputs": [
        {
          "internalType": "address",
          "name": "sender",
          "type": "address"
        },
        {
          "internalType": "address",
          "name": "contract_",
          "type": "address"
        },
        {
          "internalType": "bytes4",
          "name": "selector",
          "type": "bytes4"
        }
      ],
      "name": "adminACLAllowed",
      "outputs": [
        {
          "internalType": "bool",
          "name": "",
          "type": "bool"
        }
      ],
      "stateMutability": "nonpayable",
      "type": "function"
    },
    {
      "inputs": [],
      "name": "adminACLContract",
      "outputs": [
        {
          "internalType": "contract IAdminACLV0",
          "name": "",
          "type": "address"
        }
      ],
      "stateMutability": "view",
      "type": "function"
    },
    {
      "inputs": [
        {
          "internalType": "address",
          "name": "coreContract",
          "type": "address"
        },
        {
          "internalType": "address",
          "name": "minter",
          "type": "address"
        }
      ],
      "name": "approveMinterForContract",
      "outputs": [],
      "stateMutability": "nonpayable",
      "type": "function"
    },
    {
      "inputs": [
        {
          "internalType": "address",
          "name": "minter",
          "type": "address"
        }
      ],
      "name": "approveMinterGlobally",
      "outputs": [],
      "stateMutability": "nonpayable",
      "type": "function"
    },
    {
      "inputs": [],
      "name": "coreRegistry",
      "outputs": [
        {
          "internalType": "contract ICoreRegistryV1",
          "name": "",
          "type": "address"
        }
      ],
      "stateMutability": "view",
      "type": "function"
    },
    {
      "inputs": [
        {
          "internalType": "address",
          "name": "coreContract",
          "type": "address"
        }
      ],
      "name": "getAllContractApprovedMinters",
      "outputs": [
        {
          "components": [
            {
              "internalType": "address",
              "name": "minterAddress",
              "type": "address"
            },
            {
              "internalType": "string",
              "name": "minterType",
              "type": "string"
            }
          ],
          "internalType": "struct IMinterFilterV1.MinterWithType[]",
          "name": "mintersWithTypes",
          "type": "tuple[]"
        }
      ],
      "stateMutability": "view",
      "type": "function"
    },
    {
      "inputs": [],
      "name": "getAllGloballyApprovedMinters",
      "outputs": [
        {
          "components": [
            {
              "internalType": "address",
              "name": "minterAddress",
              "type": "address"
            },
            {
              "internalType": "string",
              "name": "minterType",
              "type": "string"
            }
          ],
          "internalType": "struct IMinterFilterV1.MinterWithType[]",
          "name": "mintersWithTypes",
          "type": "tuple[]"
        }
      ],
      "stateMutability": "view",
      "type": "function"
    },
    {
      "inputs": [
        {
          "internalType": "uint256",
          "name": "projectId",
          "type": "uint256"
        },
        {
          "internalType": "address",
          "name": "coreContract",
          "type": "address"
        }
      ],
      "name": "getMinterForProject",
      "outputs": [
        {
          "internalType": "address",
          "name": "",
          "type": "address"
        }
      ],
      "stateMutability": "view",
      "type": "function"
    },
    {
      "inputs": [
        {
          "internalType": "address",
          "name": "coreContract",
          "type": "address"
        }
      ],
      "name": "getNumProjectsOnContractWithMinters",
      "outputs": [
        {
          "internalType": "uint256",
          "name": "",
          "type": "uint256"
        }
      ],
      "stateMutability": "view",
      "type": "function"
    },
    {
      "inputs": [
        {
          "internalType": "address",
          "name": "coreContract",
          "type": "address"
        },
        {
          "internalType": "uint256",
          "name": "index",
          "type": "uint256"
        }
      ],
      "name": "getProjectAndMinterInfoOnContractAt",
      "outputs": [
        {
          "internalType": "uint256",
          "name": "projectId",
          "type": "uint256"
        },
        {
          "internalType": "address",
          "name": "minterAddress",
          "type": "address"
        },
        {
          "internalType": "string",
          "name": "minterType",
          "type": "string"
        }
      ],
      "stateMutability": "view",
      "type": "function"
    },
    {
      "inputs": [
        {
          "internalType": "address",
          "name": "coreContract",
          "type": "address"
        },
        {
          "internalType": "address",
          "name": "minter",
          "type": "address"
        }
      ],
      "name": "getProjectsOnContractUsingMinter",
      "outputs": [
        {
          "internalType": "uint256[]",
          "name": "projectIds",
          "type": "uint256[]"
        }
      ],
      "stateMutability": "view",
      "type": "function"
    },
    {
      "inputs": [
        {
          "internalType": "address",
          "name": "coreContract",
          "type": "address"
        },
        {
          "internalType": "address",
          "name": "minter",
          "type": "address"
        }
      ],
      "name": "isApprovedMinterForContract",
      "outputs": [
        {
          "internalType": "bool",
          "name": "",
          "type": "bool"
        }
      ],
      "stateMutability": "view",
      "type": "function"
    },
    {
      "inputs": [
        {
          "internalType": "address",
          "name": "minter",
          "type": "address"
        }
      ],
      "name": "isGloballyApprovedMinter",
      "outputs": [
        {
          "internalType": "bool",
          "name": "",
          "type": "bool"
        }
      ],
      "stateMutability": "view",
      "type": "function"
    },
    {
      "inputs": [
        {
          "internalType": "address",
          "name": "coreContract",
          "type": "address"
        }
      ],
      "name": "isRegisteredCoreContract",
      "outputs": [
        {
          "internalType": "bool",
          "name": "",
          "type": "bool"
        }
      ],
      "stateMutability": "view",
      "type": "function"
    },
    {
      "inputs": [
        {
          "internalType": "address",
          "name": "to",
          "type": "address"
        },
        {
          "internalType": "uint256",
          "name": "projectId",
          "type": "uint256"
        },
        {
          "internalType": "address",
          "name": "coreContract",
          "type": "address"
        },
        {
          "internalType": "address",
          "name": "sender",
          "type": "address"
        }
      ],
      "name": "mint_joo",
      "outputs": [
        {
          "internalType": "uint256",
          "name": "tokenId",
          "type": "uint256"
        }
      ],
      "stateMutability": "nonpayable",
      "type": "function"
    },
    {
      "inputs": [],
      "name": "minterFilterType",
      "outputs": [
        {
          "internalType": "string",
          "name": "",
          "type": "string"
        }
      ],
      "stateMutability": "pure",
      "type": "function"
    },
    {
      "inputs": [],
      "name": "minterFilterVersion",
      "outputs": [
        {
          "internalType": "string",
          "name": "",
          "type": "string"
        }
      ],
      "stateMutability": "pure",
      "type": "function"
    },
    {
      "inputs": [
        {
          "internalType": "address",
          "name": "minterAddress",
          "type": "address"
        }
      ],
      "name": "numProjectsUsingMinter",
      "outputs": [
        {
          "internalType": "uint256",
          "name": "numProjects",
          "type": "uint256"
        }
      ],
      "stateMutability": "view",
      "type": "function"
    },
    {
      "inputs": [],
      "name": "owner",
      "outputs": [
        {
          "internalType": "address",
          "name": "",
          "type": "address"
        }
      ],
      "stateMutability": "view",
      "type": "function"
    },
    {
      "inputs": [
        {
          "internalType": "uint256",
          "name": "projectId",
          "type": "uint256"
        },
        {
          "internalType": "address",
          "name": "coreContract",
          "type": "address"
        }
      ],
      "name": "projectHasMinter",
      "outputs": [
        {
          "internalType": "bool",
          "name": "",
          "type": "bool"
        }
      ],
      "stateMutability": "view",
      "type": "function"
    },
    {
      "inputs": [
        {
          "internalType": "uint256",
          "name": "projectId",
          "type": "uint256"
        },
        {
          "internalType": "address",
          "name": "coreContract",
          "type": "address"
        }
      ],
      "name": "removeMinterForProject",
      "outputs": [],
      "stateMutability": "nonpayable",
      "type": "function"
    },
    {
      "inputs": [
        {
          "internalType": "uint256[]",
          "name": "projectIds",
          "type": "uint256[]"
        },
        {
          "internalType": "address",
          "name": "coreContract",
          "type": "address"
        }
      ],
      "name": "removeMintersForProjectsOnContract",
      "outputs": [],
      "stateMutability": "nonpayable",
      "type": "function"
    },
    {
      "inputs": [],
      "name": "renounceOwnership",
      "outputs": [],
      "stateMutability": "pure",
      "type": "function"
    },
    {
      "inputs": [
        {
          "internalType": "address",
          "name": "coreContract",
          "type": "address"
        },
        {
          "internalType": "address",
          "name": "minter",
          "type": "address"
        }
      ],
      "name": "revokeMinterForContract",
      "outputs": [],
      "stateMutability": "nonpayable",
      "type": "function"
    },
    {
      "inputs": [
        {
          "internalType": "address",
          "name": "minter",
          "type": "address"
        }
      ],
      "name": "revokeMinterGlobally",
      "outputs": [],
      "stateMutability": "nonpayable",
      "type": "function"
    },
    {
      "inputs": [
        {
          "internalType": "uint256",
          "name": "projectId",
          "type": "uint256"
        },
        {
          "internalType": "address",
          "name": "coreContract",
          "type": "address"
        },
        {
          "internalType": "address",
          "name": "minter",
          "type": "address"
        }
      ],
      "name": "setMinterForProject",
      "outputs": [],
      "stateMutability": "nonpayable",
      "type": "function"
    },
    {
      "inputs": [
        {
          "internalType": "address",
          "name": "newOwner",
          "type": "address"
        }
      ],
      "name": "transferOwnership",
      "outputs": [],
      "stateMutability": "nonpayable",
      "type": "function"
    },
    {
      "inputs": [
        {
          "internalType": "address",
          "name": "coreRegistry_",
          "type": "address"
        }
      ],
      "name": "updateCoreRegistry",
      "outputs": [],
      "stateMutability": "nonpayable",
      "type": "function"
    }
  ],
  "bytecode": "0x60806040523480156200001157600080fd5b506040516200245b3803806200245b8339810160408190526200003491620001d3565b6200003f3362000086565b6200004a8262000086565b6200005581620000b3565b6040517f3fad920548ed9f22deb8333b4cc1e4f9bc36666a1c2aa30ad59a0a3bb9dcbb9290600090a150506200020b565b620000918162000108565b600180546001600160a01b0319166001600160a01b0392909216919091179055565b620000be8162000158565b600280546001600160a01b0319166001600160a01b0383169081179091556040517fb7b620c2c1cece07219b2ac19100c3f8629a9752c3c5484ed6524e99d0bddeed90600090a250565b600080546001600160a01b038381166001600160a01b0319831681178455604051919092169283917f8be0079c531659141344cd1fd0a4f28419497f9722a3daafe3b4186f6b6457e09190a35050565b6001600160a01b038116620001b35760405162461bcd60e51b815260206004820152601560248201527f4f6e6c79206e6f6e2d7a65726f20616464726573730000000000000000000000604482015260640160405180910390fd5b50565b80516001600160a01b0381168114620001ce57600080fd5b919050565b60008060408385031215620001e757600080fd5b620001f283620001b6565b91506200020260208401620001b6565b90509250929050565b612240806200021b6000396000f3fe608060405234801561001057600080fd5b50600436106101625760003560e01c8063765aabff116100c9578063765aabff1461029c57806384b19f1e146102af5780638da5cb5b146102c25780638e5b9056146102ca5780638f48e2c0146102dd57806395139f66146102f0578063969c3ed714610303578063a02b095214610323578063a365254714610343578063af439a311461034b578063e420c9541461036d578063ea6e376114610380578063f2fde38b14610393578063fd9ca435146103a657600080fd5b80615f34146101675780630a3eecb21461018d5780631e9bef46146101a25780631f8608c6146101c257806320f2ccb7146101e5578063230448b1146101fa57806326df17b51461020d57806341946f0f1461022d57806353114de4146102405780635845de1f146102535780635e94e3de146102665780636bf3d05a146102795780637136b93e1461028c578063715018a614610294575b600080fd5b61017a610175366004611c52565b6103b9565b6040519081526020015b60405180910390f35b6101a061019b366004611ca5565b6104b7565b005b6001546101b5906001600160a01b031681565b6040516101849190611cde565b6101d56101d0366004611cf2565b610553565b6040519015158152602001610184565b6101ed6105cb565b6040516101849190611d5f565b6101d5610208366004611d72565b6105ec565b61017a61021b366004611cf2565b60036020526000908152604090205481565b6101a061023b366004611dca565b61066b565b6101a061024e366004611e01565b6107f7565b6101b5610261366004611e7b565b61084e565b6101a0610274366004611ca5565b6108ba565b6002546101b5906001600160a01b031681565b6101ed6109c6565b6101a06109da565b6101a06102aa366004611e7b565b610a1e565b6101a06102bd366004611cf2565b610a47565b6101b5610b27565b6101d56102d8366004611ca5565b610b36565b6101d56102eb366004611cf2565b610b70565b6101a06102fe366004611cf2565b610b7d565b610316610311366004611ca5565b610b99565b6040516101849190611ea0565b610336610331366004611cf2565b610ca9565b6040516101849190611ee4565b610336610e00565b61035e610359366004611f61565b610f3f565b60405161018493929190611f8d565b6101a061037b366004611cf2565b610fdd565b6101d561038e366004611e7b565b61104b565b6101a06103a1366004611cf2565b611078565b61017a6103b4366004611cf2565b6110ee565b6001600160a01b03821660009081526007602052604081206103db908561110f565b6001600160a01b0316336001600160a01b0316146104375760405162461bcd60e51b815260206004820152601460248201527327b7363c9030b9b9b4b3b732b21036b4b73a32b960611b60448201526064015b60405180910390fd5b604051615de560e01b81526001600160a01b038681166004830152602482018690528381166044830152841690615de5906064016020604051808303816000875af115801561048a573d6000803e3d6000fd5b505050506040513d601f19601f820116820180604052508101906104ae9190611fb7565b95945050505050565b6104c08261111b565b6104d18263051f765960e11b6111d8565b6001600160a01b03821660009081526006602052604090206104f39082611294565b61050f5760405162461bcd60e51b815260040161042e90611fd0565b806001600160a01b0316826001600160a01b03167f60ecff7c83062c43d6aae585dca525293afec7a4f4c378d12927ce8f7525da2460405160405180910390a35050565b60025460405163f1052af560e01b81526000916001600160a01b03169063f1052af590610584908590600401611cde565b602060405180830381865afa1580156105a1573d6000803e3d6000fd5b505050506040513d601f19601f820116820180604052508101906105c59190612007565b92915050565b60606105e76d26b4b73a32b92334b63a32b92b1960911b6112a9565b905090565b6001546040516217798b60e61b81526000916001600160a01b0316906305de62c09061062090879087908790600401612029565b6020604051808303816000875af115801561063f573d6000803e3d6000fd5b505050506040513d601f19601f820116820180604052508101906106639190612007565b949350505050565b6106748261111b565b61068683836341946f0f60e01b611314565b610690828261145e565b61069a83836114ac565b6001600160a01b038216600090815260076020526040812081906106be90866115cb565b9150915081156106f2576001600160a01b03811660009081526003602052604081208054916106ec8361206c565b91905055505b6001600160a01b038316600090815260036020526040812080549161071683612083565b90915550506001600160a01b038416600090815260076020526040902061073e9086856115e9565b50826001600160a01b0316846001600160a01b0316867ff012149282a4a83d5c0326ace29c04e9133d41afa355fa606583817a27077d3f866001600160a01b031663e9d1e8ac6040518163ffffffff1660e01b8152600401600060405180830381865afa1580156107b3573d6000803e3d6000fd5b505050506040513d6000823e601f3d908101601f191682016040526107db91908101906120b2565b6040516107e89190611d5f565b60405180910390a45050505050565b6108008161111b565b610811816314c4537960e21b6111d8565b8160005b818110156108475761083f8585838181106108325761083261215e565b90506020020135846115ff565b600101610815565b5050505050565b6001600160a01b03811660009081526007602052604081208190819061087490866115cb565b91509150816106635760405162461bcd60e51b8152602060048201526012602482015271139bc81b5a5b9d195c88185cdcda59db995960721b604482015260640161042e565b6108c38261111b565b6108d482632f4a71ef60e11b6111d8565b6001600160a01b03821660009081526006602052604090206108f690826116db565b6109125760405162461bcd60e51b815260040161042e90612174565b806001600160a01b0316826001600160a01b03167ff85412168568a1b1d7fda7902afcdb9b2b5380b30d67881d704a1c77cab63045836001600160a01b031663e9d1e8ac6040518163ffffffff1660e01b8152600401600060405180830381865afa158015610985573d6000803e3d6000fd5b505050506040513d6000823e601f3d908101601f191682016040526109ad91908101906120b2565b6040516109ba9190611d5f565b60405180910390a35050565b60606105e765076322e302e360d41b6112a9565b60405162461bcd60e51b8152602060048201526019602482015278043616e6e6f742072656e6f756e6365206f776e65727368697603c1b604482015260640161042e565b610a278161111b565b610a39828263765aabff60e01b611314565b610a4382826115ff565b5050565b610a57634258cf8f60e11b6116f0565b610a626004826116db565b610a7e5760405162461bcd60e51b815260040161042e90612174565b806001600160a01b03167f0d736cadcb29a6b8ae53b321e79e808a23cd1a48e960e4b566bcb2e9d6cccba8826001600160a01b031663e9d1e8ac6040518163ffffffff1660e01b8152600401600060405180830381865afa158015610ae7573d6000803e3d6000fd5b505050506040513d6000823e601f3d908101601f19168201604052610b0f91908101906120b2565b604051610b1c9190611d5f565b60405180910390a250565b6000546001600160a01b031690565b6000610b4182610b70565b80610b6957506001600160a01b0383166000908152600660205260409020610b699083611740565b9392505050565b60006105c5600483611740565b610b8d634a89cfb360e11b6116f0565b610b9681611755565b50565b6001600160a01b038083166000908152600760209081526040808320938516835260039091528120546060929190610bd990610bd4846117a8565b6117b3565b9050806001600160401b03811115610bf357610bf361209c565b604051908082528060200260200182016040528015610c1c578160200160208202803683370190505b5092506000610c2a836117a8565b90506000805b82811015610c9257600080610c4587846117c9565b91509150886001600160a01b0316816001600160a01b031603610c885781888580600101965081518110610c7b57610c7b61215e565b6020026020010181815250505b5050600101610c30565b5080831115610c9f578085525b5050505092915050565b6001600160a01b0381166000908152600660205260408120606091610ccd826117d8565b9050806001600160401b03811115610ce757610ce761209c565b604051908082528060200260200182016040528015610d2d57816020015b604080518082019091526000815260606020820152815260200190600190039081610d055790505b50925060005b81811015610df8576000610d4784836117e2565b90506000816001600160a01b031663e9d1e8ac6040518163ffffffff1660e01b8152600401600060405180830381865afa158015610d89573d6000803e3d6000fd5b505050506040513d6000823e601f3d908101601f19168201604052610db191908101906120b2565b90506040518060400160405280836001600160a01b0316815260200182815250868481518110610de357610de361215e565b60209081029190910101525050600101610d33565b505050919050565b60606000610e0e60046117d8565b9050806001600160401b03811115610e2857610e2861209c565b604051908082528060200260200182016040528015610e6e57816020015b604080518082019091526000815260606020820152815260200190600190039081610e465790505b50915060005b81811015610f3a576000610e896004836117e2565b90506000816001600160a01b031663e9d1e8ac6040518163ffffffff1660e01b8152600401600060405180830381865afa158015610ecb573d6000803e3d6000fd5b505050506040513d6000823e601f3d908101601f19168201604052610ef391908101906120b2565b90506040518060400160405280836001600160a01b0316815260200182815250858481518110610f2557610f2561215e565b60209081029190910101525050600101610e74565b505090565b6001600160a01b03821660009081526007602052604081208190606090610f6690856117c9565b8093508194505050816001600160a01b031663e9d1e8ac6040518163ffffffff1660e01b8152600401600060405180830381865afa158015610fac573d6000803e3d6000fd5b505050506040513d6000823e601f3d908101601f19168201604052610fd491908101906120b2565b90509250925092565b610fed633908325560e21b6116f0565b610ff8600482611294565b6110145760405162461bcd60e51b815260040161042e90611fd0565b6040516001600160a01b038216907f370244067623daed110e586dc655aa7544b64008c7bfebe6cc5d235933a3395890600090a250565b6001600160a01b0381166000908152600760205260408120819061106f90856115cb565b50949350505050565b6110806117ee565b6001600160a01b0381166110e55760405162461bcd60e51b815260206004820152602660248201527f4f776e61626c653a206e6577206f776e657220697320746865207a65726f206160448201526564647265737360d01b606482015260840161042e565b610b968161184f565b6001600160a01b03811660009081526007602052604081206105c5906117a8565b6000610b69838361187a565b60025460405163f1052af560e01b81526001600160a01b039091169063f1052af59061114b908490600401611cde565b602060405180830381865afa158015611168573d6000803e3d6000fd5b505050506040513d601f19601f8201168201806040525081019061118c9190612007565b610b965760405162461bcd60e51b815260206004820152601d60248201527f4f6e6c79207265676973746572656420636f726520636f6e7472616374000000604482015260640161042e565b60405163230448b160e01b81526001600160a01b0383169063230448b19061120890339030908690600401612029565b6020604051808303816000875af1158015611227573d6000803e3d6000fd5b505050506040513d601f19601f8201168201806040525081019061124b9190612007565b610a435760405162461bcd60e51b815260206004820152601a60248201527913db9b1e4810dbdc994810591b5a5b9050d308185b1b1bddd95960321b604482015260640161042e565b6000610b69836001600160a01b0384166118ea565b606060005b828160ff16602081106112c3576112c361215e565b1a60f81b6001600160f81b031916158015906112e2575060208160ff16105b156112f957806112f1816121a5565b9150506112ae565b60405191506040820160405280825282602083015250919050565b60405163a47d29cb60e01b81526004810184905282906001600160a01b0382169063a47d29cb90602401602060405180830381865afa15801561135b573d6000803e3d6000fd5b505050506040513d601f19601f8201168201806040525081019061137f91906121c4565b6001600160a01b0316336001600160a01b0316148061140c575060405163230448b160e01b81526001600160a01b0382169063230448b1906113c990339030908790600401612029565b6020604051808303816000875af11580156113e8573d6000803e3d6000fd5b505050506040513d601f19601f8201168201806040525081019061140c9190612007565b6114585760405162461bcd60e51b815260206004820152601d60248201527f4f6e6c7920417274697374206f7220436f72652041646d696e2041434c000000604482015260640161042e565b50505050565b6114688282610b36565b610a435760405162461bcd60e51b81526020600482015260156024820152744f6e6c7920617070726f766564206d696e7465727360581b604482015260640161042e565b6000819050806001600160a01b031663f893c07b6040518163ffffffff1660e01b8152600401602060405180830381865afa1580156114ef573d6000803e3d6000fd5b505050506040513d601f19601f820116820180604052508101906115139190611fb7565b83101580156115825750806001600160a01b031663e935b7b16040518163ffffffff1660e01b8152600401602060405180830381865afa15801561155b573d6000803e3d6000fd5b505050506040513d601f19601f8201168201806040525081019061157f9190611fb7565b83105b6115c65760405162461bcd60e51b815260206004820152601560248201527413db9b1e481d985b1a59081c1c9bda9958dd081251605a1b604482015260640161042e565b505050565b60008080806115da86866119dd565b909450925050505b9250929050565b600061066384846001600160a01b038516611a17565b6040805180820182526012815271139bc81b5a5b9d195c88185cdcda59db995960721b6020808301919091526001600160a01b038416600090815260079091529182206003929161165291908690611a34565b6001600160a01b03168152602081019190915260400160009081208054916116798361206c565b90915550506001600160a01b03811660009081526007602052604090206116a09083611a41565b506040516001600160a01b0382169083907f08cccda053ef9dd4d5864c1af5303d9ef0277a79c21cacee3cd0b34dd4e9160590600090a35050565b6000610b69836001600160a01b038416611a4d565b6116fb3330836105ec565b610b965760405162461bcd60e51b815260206004820152601660248201527513db9b1e4810591b5a5b881050d308185b1b1bddd95960521b604482015260640161042e565b6000610b69836001600160a01b038416611a97565b61175e81611aaf565b600280546001600160a01b0319166001600160a01b0383169081179091556040517fb7b620c2c1cece07219b2ac19100c3f8629a9752c3c5484ed6524e99d0bddeed90600090a250565b60006105c582611afd565b60008183106117c25781610b69565b5090919050565b60008080806115da8686611b08565b60006105c5825490565b6000610b698383611b33565b336117f7610b27565b6001600160a01b03161461184d5760405162461bcd60e51b815260206004820181905260248201527f4f776e61626c653a2063616c6c6572206973206e6f7420746865206f776e6572604482015260640161042e565b565b61185881611b5d565b600180546001600160a01b0319166001600160a01b0392909216919091179055565b60008181526002830160205260408120548015158061189e575061189e8484611bad565b610b695760405162461bcd60e51b815260206004820152601e60248201527f456e756d657261626c654d61703a206e6f6e6578697374656e74206b65790000604482015260640161042e565b600081815260018301602052604081205480156119d357600061190e6001836121e1565b8554909150600090611922906001906121e1565b90508181146119875760008660000182815481106119425761194261215e565b90600052602060002001549050808760000184815481106119655761196561215e565b6000918252602080832090910192909255918252600188019052604090208390555b8554869080611998576119986121f4565b6001900381819060005260206000200160009055905585600101600086815260200190815260200160002060009055600193505050506105c5565b60009150506105c5565b6000818152600283016020526040812054819080611a0c576119ff8585611bad565b9250600091506115e29050565b6001925090506115e2565b600082815260028401602052604081208290556106638484611bb9565b6000610663848484611bc5565b6000610b698383611c08565b6000611a598383611a97565b611a8f575081546001818101845560008481526020808220909301849055845484825282860190935260409020919091556105c5565b5060006105c5565b60009081526001919091016020526040902054151590565b6001600160a01b038116610b965760405162461bcd60e51b81526020600482015260156024820152744f6e6c79206e6f6e2d7a65726f206164647265737360581b604482015260640161042e565b60006105c5826117d8565b60008080611b1685856117e2565b600081815260029690960160205260409095205494959350505050565b6000826000018281548110611b4a57611b4a61215e565b9060005260206000200154905092915050565b600080546001600160a01b038381166001600160a01b0319831681178455604051919092169283917f8be0079c531659141344cd1fd0a4f28419497f9722a3daafe3b4186f6b6457e09190a35050565b6000610b698383611c25565b6000610b698383611a4d565b600082815260028401602052604081205480151580611be95750611be98585611bad565b839061106f5760405162461bcd60e51b815260040161042e9190611d5f565b60008181526002830160205260408120819055610b698383611c31565b6000610b698383611a97565b6000610b6983836118ea565b6001600160a01b0381168114610b9657600080fd5b60008060008060808587031215611c6857600080fd5b8435611c7381611c3d565b9350602085013592506040850135611c8a81611c3d565b91506060850135611c9a81611c3d565b939692955090935050565b60008060408385031215611cb857600080fd5b8235611cc381611c3d565b91506020830135611cd381611c3d565b809150509250929050565b6001600160a01b0391909116815260200190565b600060208284031215611d0457600080fd5b8135610b6981611c3d565b60005b83811015611d2a578181015183820152602001611d12565b50506000910152565b60008151808452611d4b816020860160208601611d0f565b601f01601f19169290920160200192915050565b602081526000610b696020830184611d33565b600080600060608486031215611d8757600080fd5b8335611d9281611c3d565b92506020840135611da281611c3d565b915060408401356001600160e01b031981168114611dbf57600080fd5b809150509250925092565b600080600060608486031215611ddf57600080fd5b833592506020840135611df181611c3d565b91506040840135611dbf81611c3d565b600080600060408486031215611e1657600080fd5b83356001600160401b0380821115611e2d57600080fd5b818601915086601f830112611e4157600080fd5b813581811115611e5057600080fd5b8760208260051b8501011115611e6557600080fd5b60209283019550935050840135611dbf81611c3d565b60008060408385031215611e8e57600080fd5b823591506020830135611cd381611c3d565b6020808252825182820181905260009190848201906040850190845b81811015611ed857835183529284019291840191600101611ebc565b50909695505050505050565b60006020808301818452808551808352604092508286019150828160051b87010184880160005b83811015611f5357888303603f19018552815180516001600160a01b03168452870151878401879052611f4087850182611d33565b9588019593505090860190600101611f0b565b509098975050505050505050565b60008060408385031215611f7457600080fd5b8235611f7f81611c3d565b946020939093013593505050565b8381526001600160a01b03831660208201526060604082018190526000906104ae90830184611d33565b600060208284031215611fc957600080fd5b5051919050565b6020808252601f908201527f4f6e6c792070726576696f75736c7920617070726f766564206d696e74657200604082015260600190565b60006020828403121561201957600080fd5b81518015158114610b6957600080fd5b6001600160a01b0393841681529190921660208201526001600160e01b0319909116604082015260600190565b634e487b7160e01b600052601160045260246000fd5b60008161207b5761207b612056565b506000190190565b60006001820161209557612095612056565b5060010190565b634e487b7160e01b600052604160045260246000fd5b6000602082840312156120c457600080fd5b81516001600160401b03808211156120db57600080fd5b818401915084601f8301126120ef57600080fd5b8151818111156121015761210161209c565b604051601f8201601f19908116603f011681019083821181831017156121295761212961209c565b8160405282815287602084870101111561214257600080fd5b612153836020830160208801611d0f565b979650505050505050565b634e487b7160e01b600052603260045260246000fd5b602080825260179082015276135a5b9d195c88185b1c9958591e48185c1c1c9bdd9959604a1b604082015260600190565b600060ff821660ff81036121bb576121bb612056565b60010192915050565b6000602082840312156121d657600080fd5b8151610b6981611c3d565b818103818111156105c5576105c5612056565b634e487b7160e01b600052603160045260246000fdfea26469706673582212200fb09af2ea4b6fef8c1faf89383cfd2487cdbb90267c33cd9709bb20df2a77dd64736f6c63430008130033",
  "linkReferences": {},
  "deployedLinkReferences": {}
}